{
  "_format": "hh-sol-artifact-1",
  "contractName": "Relay",
  "sourceName": "contracts/Relay.sol",
  "abi": [
    {
      "inputs": [
        {
          "internalType": "uint32",
          "name": "_MMRIndex",
          "type": "uint32"
        },
        {
          "internalType": "bytes32",
          "name": "_genesisMMRRoot",
          "type": "bytes32"
        },
        {
          "internalType": "address[]",
          "name": "_relayers",
          "type": "address[]"
        },
        {
          "internalType": "uint32",
          "name": "_nonce",
          "type": "uint32"
        },
        {
          "internalType": "uint8",
          "name": "_threshold",
          "type": "uint8"
        },
        {
          "internalType": "bytes",
          "name": "_prefix",
          "type": "bytes"
        }
      ],
      "payable": false,
      "stateMutability": "nonpayable",
      "type": "constructor"
    },
    {
      "anonymous": false,
      "inputs": [
        {
          "indexed": true,
          "internalType": "address",
          "name": "previousOwner",
          "type": "address"
        },
        {
          "indexed": true,
          "internalType": "address",
          "name": "newOwner",
          "type": "address"
        }
      ],
      "name": "OwnershipTransferred",
      "type": "event"
    },
    {
      "anonymous": false,
      "inputs": [
        {
          "indexed": false,
          "internalType": "address",
          "name": "account",
          "type": "address"
        }
      ],
      "name": "Paused",
      "type": "event"
    },
    {
      "anonymous": false,
      "inputs": [
        {
          "indexed": false,
          "internalType": "address",
          "name": "owner",
          "type": "address"
        },
        {
          "indexed": false,
          "internalType": "uint256",
          "name": "index",
          "type": "uint256"
        }
      ],
      "name": "ResetLatestIndexEvent",
      "type": "event"
    },
    {
      "anonymous": false,
      "inputs": [
        {
          "indexed": false,
          "internalType": "address",
          "name": "owner",
          "type": "address"
        },
        {
          "indexed": false,
          "internalType": "bytes32",
          "name": "root",
          "type": "bytes32"
        },
        {
          "indexed": false,
          "internalType": "uint256",
          "name": "index",
          "type": "uint256"
        }
      ],
      "name": "ResetRootEvent",
      "type": "event"
    },
    {
      "anonymous": false,
      "inputs": [
        {
          "indexed": false,
          "internalType": "uint32",
          "name": "nonce",
          "type": "uint32"
        },
        {
          "indexed": false,
          "internalType": "address[]",
          "name": "relayers",
          "type": "address[]"
        },
        {
          "indexed": false,
          "internalType": "bytes32",
          "name": "benifit",
          "type": "bytes32"
        }
      ],
      "name": "SetRelayersEvent",
      "type": "event"
    },
    {
      "anonymous": false,
      "inputs": [
        {
          "indexed": false,
          "internalType": "address",
          "name": "relayer",
          "type": "address"
        },
        {
          "indexed": false,
          "internalType": "bytes32",
          "name": "root",
          "type": "bytes32"
        },
        {
          "indexed": false,
          "internalType": "uint256",
          "name": "index",
          "type": "uint256"
        }
      ],
      "name": "SetRootEvent",
      "type": "event"
    },
    {
      "anonymous": false,
      "inputs": [
        {
          "indexed": false,
          "internalType": "address",
          "name": "account",
          "type": "address"
        }
      ],
      "name": "Unpaused",
      "type": "event"
    },
    {
      "constant": true,
      "inputs": [
        {
          "internalType": "bytes",
          "name": "prefix",
          "type": "bytes"
        }
      ],
      "name": "_checkNetworkPrefix",
      "outputs": [
        {
          "internalType": "bool",
          "name": "",
          "type": "bool"
        }
      ],
      "payable": false,
      "stateMutability": "view",
      "type": "function"
    },
    {
      "constant": true,
      "inputs": [
        {
          "internalType": "uint32",
          "name": "index",
          "type": "uint32"
        }
      ],
      "name": "_getMMRRoot",
      "outputs": [
        {
          "internalType": "bytes32",
          "name": "",
          "type": "bytes32"
        }
      ],
      "payable": false,
      "stateMutability": "view",
      "type": "function"
    },
    {
      "constant": false,
      "inputs": [
        {
          "internalType": "bytes32",
          "name": "hash",
          "type": "bytes32"
        },
        {
          "internalType": "bytes",
          "name": "message",
          "type": "bytes"
        },
        {
          "internalType": "bytes[]",
          "name": "signatures",
          "type": "bytes[]"
        }
      ],
      "name": "appendRoot",
      "outputs": [],
      "payable": false,
      "stateMutability": "nonpayable",
      "type": "function"
    },
    {
      "constant": true,
      "inputs": [
        {
          "internalType": "bytes32",
          "name": "root",
          "type": "bytes32"
        },
        {
          "internalType": "bytes",
          "name": "proofstr",
          "type": "bytes"
        },
        {
          "internalType": "bytes",
          "name": "key",
          "type": "bytes"
        }
      ],
      "name": "getLockTokenReceipt",
      "outputs": [
        {
          "internalType": "bytes",
          "name": "",
          "type": "bytes"
        }
      ],
      "payable": false,
      "stateMutability": "view",
      "type": "function"
    },
    {
      "constant": true,
      "inputs": [],
      "name": "latestIndex",
      "outputs": [
        {
          "internalType": "uint32",
          "name": "",
          "type": "uint32"
        }
      ],
      "payable": false,
      "stateMutability": "view",
      "type": "function"
    },
    {
      "constant": true,
      "inputs": [
        {
          "internalType": "uint32",
          "name": "",
          "type": "uint32"
        }
      ],
      "name": "mmrRootPool",
      "outputs": [
        {
          "internalType": "bytes32",
          "name": "",
          "type": "bytes32"
        }
      ],
      "payable": false,
      "stateMutability": "view",
      "type": "function"
    },
    {
      "constant": true,
      "inputs": [],
      "name": "owner",
      "outputs": [
        {
          "internalType": "address",
          "name": "",
          "type": "address"
        }
      ],
      "payable": false,
      "stateMutability": "view",
      "type": "function"
    },
    {
      "constant": false,
      "inputs": [],
      "name": "pause",
      "outputs": [],
      "payable": false,
      "stateMutability": "nonpayable",
      "type": "function"
    },
    {
      "constant": true,
      "inputs": [],
      "name": "paused",
      "outputs": [
        {
          "internalType": "bool",
          "name": "",
          "type": "bool"
        }
      ],
      "payable": false,
      "stateMutability": "view",
      "type": "function"
    },
    {
      "constant": false,
      "inputs": [],
      "name": "renounceOwnership",
      "outputs": [],
      "payable": false,
      "stateMutability": "nonpayable",
      "type": "function"
    },
    {
      "constant": false,
      "inputs": [
        {
          "internalType": "uint32",
          "name": "index",
          "type": "uint32"
        }
      ],
      "name": "resetLatestIndex",
      "outputs": [],
      "payable": false,
      "stateMutability": "nonpayable",
      "type": "function"
    },
    {
      "constant": false,
      "inputs": [
        {
          "internalType": "uint32",
          "name": "index",
          "type": "uint32"
        },
        {
          "internalType": "bytes32",
          "name": "root",
          "type": "bytes32"
        }
      ],
      "name": "resetRoot",
      "outputs": [],
      "payable": false,
      "stateMutability": "nonpayable",
      "type": "function"
    },
    {
      "constant": false,
      "inputs": [
        {
          "internalType": "address",
          "name": "newOwner",
          "type": "address"
        }
      ],
      "name": "transferOwnership",
      "outputs": [],
      "payable": false,
      "stateMutability": "nonpayable",
      "type": "function"
    },
    {
      "constant": false,
      "inputs": [],
      "name": "unpause",
      "outputs": [],
      "payable": false,
      "stateMutability": "nonpayable",
      "type": "function"
    },
    {
      "constant": false,
      "inputs": [
        {
          "internalType": "bytes32",
          "name": "hash",
          "type": "bytes32"
        },
        {
          "internalType": "bytes",
          "name": "message",
          "type": "bytes"
        },
        {
          "internalType": "bytes[]",
          "name": "signatures",
          "type": "bytes[]"
        },
        {
          "internalType": "bytes32",
          "name": "benefit",
          "type": "bytes32"
        }
      ],
      "name": "updateRelayer",
      "outputs": [],
      "payable": false,
      "stateMutability": "nonpayable",
      "type": "function"
    },
    {
      "constant": true,
      "inputs": [
        {
          "internalType": "bytes32",
          "name": "root",
          "type": "bytes32"
        },
        {
          "internalType": "uint32",
          "name": "MMRIndex",
          "type": "uint32"
        },
        {
          "internalType": "uint32",
          "name": "blockNumber",
          "type": "uint32"
        },
        {
          "internalType": "bytes",
          "name": "blockHeader",
          "type": "bytes"
        },
        {
          "internalType": "bytes32[]",
          "name": "peaks",
          "type": "bytes32[]"
        },
        {
          "internalType": "bytes32[]",
          "name": "siblings",
          "type": "bytes32[]"
        },
        {
          "internalType": "bytes",
          "name": "proofstr",
          "type": "bytes"
        },
        {
          "internalType": "bytes",
          "name": "key",
          "type": "bytes"
        }
      ],
      "name": "verifyAndDecodeReceipt",
      "outputs": [
        {
          "internalType": "bytes",
          "name": "",
          "type": "bytes"
        }
      ],
      "payable": false,
      "stateMutability": "view",
      "type": "function"
    },
    {
      "constant": true,
      "inputs": [
        {
          "internalType": "bytes32",
          "name": "root",
          "type": "bytes32"
        },
        {
          "internalType": "uint32",
          "name": "MMRIndex",
          "type": "uint32"
        },
        {
          "internalType": "uint32",
          "name": "blockNumber",
          "type": "uint32"
        },
        {
          "internalType": "bytes",
          "name": "blockHeader",
          "type": "bytes"
        },
        {
          "internalType": "bytes32[]",
          "name": "peaks",
          "type": "bytes32[]"
        },
        {
          "internalType": "bytes32[]",
          "name": "siblings",
          "type": "bytes32[]"
        }
      ],
      "name": "verifyBlockProof",
      "outputs": [
        {
          "internalType": "bool",
          "name": "",
          "type": "bool"
        }
      ],
      "payable": false,
      "stateMutability": "view",
      "type": "function"
    }
  ],
  "bytecode": "0x60806040523480156200001157600080fd5b50604051620030ab380380620030ab83398101604081905262000034916200051c565b6000620000496001600160e01b036200010816565b600080546001600160a01b0319166001600160a01b0383169081178255604051929350917f8be0079c531659141344cd1fd0a4f28419497f9722a3daafe3b4186f6b6457e0908290a3506000805460ff60a01b19169055620000b586866001600160e01b036200010d16565b620000cc838560006001600160e01b03620001a616565b620000e0816001600160e01b036200023816565b506003805460ff909216620100000262ff000019909216919091179055506200092c92505050565b335b90565b63ffffffff8216600090815260056020526040902054156200014c5760405162461bcd60e51b81526004016200014390620007a0565b60405180910390fd5b60065463ffffffff808416911610620001795760405162461bcd60e51b815260040162000143906200078e565b6200018e82826001600160e01b036200024d16565b620001a2826001600160e01b03620002b816565b5050565b6000825111620001ca5760405162461bcd60e51b81526004016200014390620007b2565b8151620001df906002906020850190620002d4565b506001805463ffffffff191663ffffffff85161790556040517fed32e8cef95302d0bbe8b5db4299dbcfd1f4c9753ace659aa7d4604babdbf11e906200022b90859085908590620007c4565b60405180910390a1505050565b8051620001a29060049060208401906200033e565b63ffffffff821660009081526005602052604090208190557f96635f5f1b0b05ed7e2265d4e13634378280f038e5a958227d4f383f825c2771620002996001600160e01b036200010816565b8284604051620002ac9392919062000758565b60405180910390a15050565b6006805463ffffffff191663ffffffff92909216919091179055565b8280548282559060005260206000209081019282156200032c579160200282015b828111156200032c57825182546001600160a01b0319166001600160a01b03909116178255602090920191600190910190620002f5565b506200033a929150620003bf565b5090565b828054600181600116156101000203166002900490600052602060002090601f016020900481019282601f106200038157805160ff1916838001178555620003b1565b82800160010185558215620003b1579182015b82811115620003b157825182559160200191906001019062000394565b506200033a929150620003e6565b6200010a91905b808211156200033a5780546001600160a01b0319168155600101620003c6565b6200010a91905b808211156200033a5760008155600101620003ed565b80516200041081620008f1565b92915050565b600082601f8301126200042857600080fd5b81516200043f620004398262000820565b620007f9565b915081818352602084019350602081019050838560208402820111156200046557600080fd5b60005b838110156200049557816200047e888262000403565b845250602092830192919091019060010162000468565b5050505092915050565b805162000410816200090b565b600082601f830112620004be57600080fd5b8151620004cf620004398262000841565b91508082526020830160208301858383011115620004ec57600080fd5b620004f9838284620008be565b50505092915050565b8051620004108162000916565b8051620004108162000921565b60008060008060008060c087890312156200053657600080fd5b600062000544898962000502565b96505060206200055789828a016200049f565b95505060408701516001600160401b038111156200057457600080fd5b6200058289828a0162000416565b94505060606200059589828a0162000502565b9350506080620005a889828a016200050f565b92505060a08701516001600160401b03811115620005c557600080fd5b620005d389828a01620004ac565b9150509295509295509295565b6000620005ee838362000607565b505060200190565b62000601816200089d565b82525050565b62000601816200087c565b60006200061f826200086f565b6200062b818562000873565b9350620006388362000869565b8060005b838110156200066c578151620006538882620005e0565b9750620006608362000869565b9250506001016200063c565b509495945050505050565b62000601816200010a565b60006200069160268362000873565b7f52656c61793a2054686572652061726520616c72656164792068696768657220815265626c6f636b7360d01b602082015260400192915050565b6000620006db60198362000873565b7f52656c61793a20496e64657820686173206265656e2073657400000000000000815260200192915050565b60006200071660188362000873565b7f52656c61793a206163636f756e747320697320656d7074790000000000000000815260200192915050565b6200060181620008b1565b62000601816200088e565b60608101620007688286620005f6565b62000777602083018562000677565b62000786604083018462000742565b949350505050565b60208082528101620004108162000682565b602080825281016200041081620006cc565b60208082528101620004108162000707565b60608101620007d482866200074d565b8181036020830152620007e8818562000612565b905062000786604083018462000677565b6040518181016001600160401b03811182821017156200081857600080fd5b604052919050565b60006001600160401b038211156200083757600080fd5b5060209081020190565b60006001600160401b038211156200085857600080fd5b506020601f91909101601f19160190565b60200190565b5190565b90815260200190565b60006001600160a01b03821662000410565b63ffffffff1690565b60ff1690565b60006200041082600062000410826200087c565b600062000410826200088e565b60005b83811015620008db578181015183820152602001620008c1565b83811115620008eb576000848401525b50505050565b620008fc816200087c565b81146200090857600080fd5b50565b620008fc816200010a565b620008fc816200088e565b620008fc8162000897565b61276f806200093c6000396000f3fe608060405234801561001057600080fd5b506004361061010b5760003560e01c80635c975abb116100a257806398c91f1e1161007157806398c91f1e146101f1578063ad15a34214610211578063c9b0e27714610224578063ebfcc3ff14610237578063f2fde38b1461024a5761010b565b80635c975abb146101c4578063715018a6146101cc5780638456cb59146101d45780638da5cb5b146101dc5761010b565b80633f4ba83a116100de5780633f4ba83a14610174578063519552631461017c57806352f0ffe01461018f578063578f2aa0146101af5761010b565b80630af2b50f14610110578063147859d1146101255780631e7053f714610138578063316c84ac14610161575b600080fd5b61012361011e36600461188d565b61025d565b005b610123610133366004611c02565b610319565b61014b61014636600461198d565b61039e565b6040516101589190612362565b60405180910390f35b61012361016f366004611be4565b6104bb565b61012361053c565b61014b61018a366004611b7c565b61057b565b6101a261019d366004611be4565b610596565b6040516101589190612370565b6101b76105a8565b60405161015891906125b6565b61014b6105b4565b6101236105c5565b610123610644565b6101e4610681565b6040516101589190612303565b6102046101ff36600461191c565b610690565b6040516101589190612455565b61020461021f366004611a59565b61077b565b610123610232366004611812565b610877565b6101a2610245366004611be4565b610927565b6101236102583660046117b0565b61093f565b600054600160a01b900460ff16156102905760405162461bcd60e51b8152600401610287906124e6565b60405180910390fd5b61029b8484846109f5565b6102b75760405162461bcd60e51b8152600401610287906124a6565b6102bf611565565b6102c884610ad7565b90506060600060606102d984610af9565b9250925092506102e88361057b565b6103045760405162461bcd60e51b815260040161028790612526565b61030f828287610b9e565b5050505050505050565b610321610c29565b6000546001600160a01b0390811691161461034e5760405162461bcd60e51b815260040161028790612546565b6103588282610c2d565b7fb14e21a6757a1e75c6eb7c68bedf9764aa1b1bfc6c8fe906f412742b706d31cf610381610c29565b82846040516103929392919061231f565b60405180910390a15050565b60008054600160a01b900460ff16156103c95760405162461bcd60e51b8152600401610287906124e6565b60006103d487610927565b14156103f25760405162461bcd60e51b815260040161028790612506565b866103fc87610927565b146104195760405162461bcd60e51b815260040161028790612586565b60405163265f6e0160e21b815273__$6bf011c07207fd4b4f621f21ef466e3cdb$__9063997db80490610460908a906001808c0191908b01908a908a908a906004016123b2565b60206040518083038186803b15801561047857600080fd5b505af415801561048c573d6000803e3d6000fd5b505050506040513d601f19601f820116820180604052506104b091908101906117d6565b979650505050505050565b6104c3610c29565b6000546001600160a01b039081169116146104f05760405162461bcd60e51b815260040161028790612546565b6104f981610c6e565b7fa0d6879a0f254475158fb66f4a9620fae51bbe67d28d9014ccdccb0a997e2d3f610522610c29565b82604051610531929190612347565b60405180910390a150565b610544610c29565b6000546001600160a01b039081169116146105715760405162461bcd60e51b815260040161028790612546565b610579610c8a565b565b600061058e610588610d00565b83610d96565b90505b919050565b60056020526000908152604090205481565b60065463ffffffff1681565b600054600160a01b900460ff165b90565b6105cd610c29565b6000546001600160a01b039081169116146105fa5760405162461bcd60e51b815260040161028790612546565b600080546040516001600160a01b03909116907f8be0079c531659141344cd1fd0a4f28419497f9722a3daafe3b4186f6b6457e0908390a3600080546001600160a01b0319169055565b61064c610c29565b6000546001600160a01b039081169116146106795760405162461bcd60e51b815260040161028790612546565b610579610e13565b6000546001600160a01b031690565b600054606090600160a01b900460ff16156106bd5760405162461bcd60e51b8152600401610287906124e6565b6106c5611565565b6106ce84610ad7565b905060606106db82610e79565b9050606073__$cf14f33fca0982a1bebe4dbf8ae607b02e$__63f520e5698887856040518463ffffffff1660e01b815260040161071a9392919061237e565b60006040518083038186803b15801561073257600080fd5b505af4158015610746573d6000803e3d6000fd5b505050506040513d6000823e601f3d908101601f1916820160405261076e9190810190611bb0565b93505050505b9392505050565b600054606090600160a01b900460ff16156107a85760405162461bcd60e51b8152600401610287906124e6565b6107b689898989898961039e565b6107d25760405162461bcd60e51b8152600401610287906124d6565b60405163100fa4b160e31b815260009073__$f412b0e1da6e883e31084b8202b2532c65$__9063807d25889061080c908a90600401612455565b60206040518083038186803b15801561082457600080fd5b505af4158015610838573d6000803e3d6000fd5b505050506040513d601f19601f8201168201806040525061085c91908101906117f4565b9050610869818585610690565b9a9950505050505050505050565b600054600160a01b900460ff16156108a15760405162461bcd60e51b8152600401610287906124e6565b6108ac8383836109f5565b6108c85760405162461bcd60e51b8152600401610287906124a6565b6108d0611565565b6108d983610ad7565b905060606000806108e984610e84565b9250925092506108f88361057b565b6109145760405162461bcd60e51b815260040161028790612526565b61091e8282610ece565b50505050505050565b63ffffffff1660009081526005602052604090205490565b610947610c29565b6000546001600160a01b039081169116146109745760405162461bcd60e51b815260040161028790612546565b6001600160a01b03811661099a5760405162461bcd60e51b815260040161028790612496565b600080546040516001600160a01b03808516939216917f8be0079c531659141344cd1fd0a4f28419497f9722a3daafe3b4186f6b6457e091a3600080546001600160a01b0319166001600160a01b0392909216919091179055565b600083838051906020012014610a1d5760405162461bcd60e51b815260040161028790612596565b63ffffffff825110610a415760405162461bcd60e51b8152600401610287906124f6565b6000805b83518161ffff161015610a95576000610a7587868461ffff1681518110610a6857fe5b6020026020010151610f42565b9050610a808161106c565b15610a8c576001909201915b50600101610a45565b506000610abb610aaa8361ffff1660646110c2565b610ab26110fc565b61ffff16611106565b9050610ac5611148565b60ff9081169116101595945050505050565b610adf611565565b506040805180820190915260008152602081019190915290565b606060006060610b0884611157565b9250610b1384611162565b91506000610b2085611162565b63ffffffff16905080604051908082528060200260200182016040528015610b52578160200160208202803883390190505b50915060005b81811015610b9557610b698661126b565b838281518110610b7557fe5b6001600160a01b0390921660209283029190910190910152600101610b58565b50509193909250565b6000825111610bbf5760405162461bcd60e51b815260040161028790612576565b8151610bd290600290602085019061157f565b506001805463ffffffff191663ffffffff85161790556040517fed32e8cef95302d0bbe8b5db4299dbcfd1f4c9753ace659aa7d4604babdbf11e90610c1c908590859085906125c4565b60405180910390a1505050565b3390565b63ffffffff821660009081526005602052604090208190557f96635f5f1b0b05ed7e2265d4e13634378280f038e5a958227d4f383f825c2771610381610c29565b6006805463ffffffff191663ffffffff92909216919091179055565b600054600160a01b900460ff16610cb35760405162461bcd60e51b815260040161028790612476565b6000805460ff60a01b191690557f5db9ee0a495bf2e6ff9c91a7834c1ba4fdd244a5e8aa4e537bd38aeae4b073aa610ce9610c29565b604051610cf69190612311565b60405180910390a1565b60048054604080516020601f6002600019610100600188161502019095169490940493840181900481028201810190925282815260609390929091830182828015610d8c5780601f10610d6157610100808354040283529160200191610d8c565b820191906000526020600020905b815481529060010190602001808311610d6f57829003601f168201915b5050505050905090565b805182516000916001911415610e065760005b8451811015610e0057838181518110610dbe57fe5b602001015160f81c60f81b6001600160f81b031916858281518110610ddf57fe5b01602001516001600160f81b03191614610df857600091505b600101610da9565b50610e0a565b5060005b90505b92915050565b600054600160a01b900460ff1615610e3d5760405162461bcd60e51b8152600401610287906124e6565b6000805460ff60a01b1916600160a01b1790557f62e78cea01bee320cd4e420270b5ea74000d11b0c9f74754ebdbfc544b05a258610ce9610c29565b606061058e8261128b565b6060600080610e9284611157565b9250610e9d84611162565b91506060610eb285602063ffffffff61132e16565b9050610ec581600063ffffffff61138316565b93959294505050565b63ffffffff821660009081526005602052604090205415610f015760405162461bcd60e51b815260040161028790612556565b60065463ffffffff808416911610610f2b5760405162461bcd60e51b8152600401610287906124b6565b610f358282610c2d565b610f3e82610c6e565b5050565b60008151604114610f655760405162461bcd60e51b815260040161028790612486565b60208201516040830151606084015160001a7f7fffffffffffffffffffffffffffffff5d576e7357a4501ddfe92f46681b20a0821115610fb75760405162461bcd60e51b8152600401610287906124c6565b8060ff16601b1480610fcc57508060ff16601c145b610fe85760405162461bcd60e51b815260040161028790612516565b60006001878386866040516000815260200160405260405161100d9493929190612420565b6020604051602081039080840390855afa15801561102f573d6000803e3d6000fd5b5050604051601f1901519150506001600160a01b0381166110625760405162461bcd60e51b815260040161028790612466565b9695505050505050565b6000805b6002548110156110b957600280548290811061108857fe5b6000918252602090912001546001600160a01b03848116911614156110b1576001915050610591565b600101611070565b50600092915050565b6000826110d157506000610e0d565b828202828482816110de57fe5b0414610e0a5760405162461bcd60e51b815260040161028790612536565b60035461ffff1690565b6000610e0a83836040518060400160405280601a81526020017f536166654d6174683a206469766973696f6e206279207a65726f0000000000008152506113c9565b60035462010000900460ff1690565b606061058e82611400565b60008061116e83611433565b90506003811660028111156111955760405162461bcd60e51b815260040161028790612566565b60ff81166111ab575060021c603f169050610591565b8060ff16600114156111e45760006111c285611433565b60081b61ff001660ff939093169290921760021c613fff169250610591915050565b8060ff16600214156112645760006111fb85611433565b9050600061120886611433565b9050600061121587611433565b9050600060188260ff1663ffffffff16901b60128460ff1663ffffffff16901b60088660ff1663ffffffff16901b8860ff16171717905060028163ffffffff16901c9650505050505050610591565b5050919050565b6000606061128083601463ffffffff61132e16565b601401519392505050565b6060600061129883611162565b90508063ffffffff166040519080825280602002602001820160405280156112d457816020015b60608152602001906001900390816112bf5790505b50915060005b8163ffffffff168110156112645760006112f385611162565b63ffffffff16905061130e818661132e90919063ffffffff16565b84838151811061131a57fe5b6020908102919091010152506001016112da565b6060828280826000015101826020015151101561135d5760405162461bcd60e51b8152600401610287906125a6565b84516020860151611374918663ffffffff61148a16565b82519091019091529392505050565b600080805b60208110156113c1578060080285828601815181106113a357fe5b01602001516001600160f81b031916901c9190911790600101611388565b509392505050565b600081836113ea5760405162461bcd60e51b81526004016102879190612455565b5060008385816113f657fe5b0495945050505050565b6060600061140d83611162565b905063ffffffff81166114205750610591565b6107748363ffffffff8084169061132e16565b60008160018082600001510182602001515110156114635760405162461bcd60e51b8152600401610287906125a6565b602084015184518151811061147457fe5b0160200151825190910190915260f81c92915050565b60608351828401111561149c57600080fd5b816114b65750604080516020810190915260008152610774565b60006114c1856114d8565b90506114cf848201846114de565b95945050505050565b60200190565b6060816040519080825280601f01601f19166020018201604052801561150b576020820181803883390190505b5090506020810161151d848285611524565b5092915050565b5b60208110611544578251825260209283019290910190601f1901611525565b915181516020939093036101000a6000190180199091169216919091179052565b604051806040016040528060008152602001606081525090565b8280548282559060005260206000209081019282156115d4579160200282015b828111156115d457825182546001600160a01b0319166001600160a01b0390911617825560209092019160019091019061159f565b506115e09291506115e4565b5090565b6105c291905b808211156115e05780546001600160a01b03191681556001016115ea565b8035610e0d816126fa565b600082601f83011261162457600080fd5b813561163761163282612619565b6125f3565b9150818183526020840193506020810190508385602084028201111561165c57600080fd5b60005b83811015611688578161167288826116fa565b845250602092830192919091019060010161165f565b5050505092915050565b600082601f8301126116a357600080fd5b81356116b161163282612619565b81815260209384019390925082018360005b8381101561168857813586016116d98882611710565b84525060209283019291909101906001016116c3565b8051610e0d81612711565b8035610e0d8161271a565b8051610e0d8161271a565b600082601f83011261172157600080fd5b813561172f61163282612639565b9150808252602083016020830185838301111561174b57600080fd5b6117568382846126b4565b50505092915050565b600082601f83011261177057600080fd5b815161177e61163282612639565b9150808252602083016020830185838301111561179a57600080fd5b6117568382846126c0565b8035610e0d81612723565b6000602082840312156117c257600080fd5b60006117ce8484611608565b949350505050565b6000602082840312156117e857600080fd5b60006117ce84846116ef565b60006020828403121561180657600080fd5b60006117ce8484611705565b60008060006060848603121561182757600080fd5b600061183386866116fa565b93505060208401356001600160401b0381111561184f57600080fd5b61185b86828701611710565b92505060408401356001600160401b0381111561187757600080fd5b61188386828701611692565b9150509250925092565b600080600080608085870312156118a357600080fd5b60006118af87876116fa565b94505060208501356001600160401b038111156118cb57600080fd5b6118d787828801611710565b93505060408501356001600160401b038111156118f357600080fd5b6118ff87828801611692565b9250506060611910878288016116fa565b91505092959194509250565b60008060006060848603121561193157600080fd5b600061193d86866116fa565b93505060208401356001600160401b0381111561195957600080fd5b61196586828701611710565b92505060408401356001600160401b0381111561198157600080fd5b61188386828701611710565b60008060008060008060c087890312156119a657600080fd5b60006119b289896116fa565b96505060206119c389828a016117a5565b95505060406119d489828a016117a5565b94505060608701356001600160401b038111156119f057600080fd5b6119fc89828a01611710565b93505060808701356001600160401b03811115611a1857600080fd5b611a2489828a01611613565b92505060a08701356001600160401b03811115611a4057600080fd5b611a4c89828a01611613565b9150509295509295509295565b600080600080600080600080610100898b031215611a7657600080fd5b6000611a828b8b6116fa565b9850506020611a938b828c016117a5565b9750506040611aa48b828c016117a5565b96505060608901356001600160401b03811115611ac057600080fd5b611acc8b828c01611710565b95505060808901356001600160401b03811115611ae857600080fd5b611af48b828c01611613565b94505060a08901356001600160401b03811115611b1057600080fd5b611b1c8b828c01611613565b93505060c08901356001600160401b03811115611b3857600080fd5b611b448b828c01611710565b92505060e08901356001600160401b03811115611b6057600080fd5b611b6c8b828c01611710565b9150509295985092959890939650565b600060208284031215611b8e57600080fd5b81356001600160401b03811115611ba457600080fd5b6117ce84828501611710565b600060208284031215611bc257600080fd5b81516001600160401b03811115611bd857600080fd5b6117ce8482850161175f565b600060208284031215611bf657600080fd5b60006117ce84846117a5565b60008060408385031215611c1557600080fd5b6000611c2185856117a5565b9250506020611c32858286016116fa565b9150509250929050565b6000611c488383611c77565b505060200190565b6000611c488383611d9e565b6000610e0a8383611da7565b611c7181612698565b82525050565b611c718161266d565b6000611c8b82612660565b611c958185612664565b9350611ca0836114d8565b8060005b83811015611cce578151611cb88882611c3c565b9750611cc3836114d8565b925050600101611ca4565b509495945050505050565b6000611ce482612660565b611cee8185612664565b9350611cf9836114d8565b8060005b83811015611cce578151611d118882611c50565b9750611d1c836114d8565b925050600101611cfd565b6000611d3282612660565b611d3c8185612664565b935083602082028501611d4e856114d8565b8060005b85811015611d885784840389528151611d6b8582611c5c565b9450611d76836114d8565b60209a909a0199925050600101611d52565b5091979650505050505050565b611c7181612678565b611c71816105c2565b6000611db282612660565b611dbc8185612664565b9350611dcc8185602086016126c0565b611dd5816126f0565b9093019392505050565b6000611dec601883612664565b7f45434453413a20696e76616c6964207369676e61747572650000000000000000815260200192915050565b6000611e25601483612664565b7314185d5cd8589b194e881b9bdd081c185d5cd95960621b815260200192915050565b6000611e55601f83612664565b7f45434453413a20696e76616c6964207369676e6174757265206c656e67746800815260200192915050565b6000611e8e602683612664565b7f4f776e61626c653a206e6577206f776e657220697320746865207a65726f206181526564647265737360d01b602082015260400192915050565b6000611ed6601c83612664565b7f52656c61793a204261642072656c61796572207369676e617475726500000000815260200192915050565b6000611f0f602683612664565b7f52656c61793a2054686572652061726520616c72656164792068696768657220815265626c6f636b7360d01b602082015260400192915050565b6000611f57602283612664565b7f45434453413a20696e76616c6964207369676e6174757265202773272076616c815261756560f01b602082015260400192915050565b6000611f9b602d83612664565b7f52656c61793a20426c6f636b206865616465722070726f6f662076617269666981526c18d85d1a5bdb8819985a5b1959609a1b602082015260400192915050565b6000611fea601083612664565b6f14185d5cd8589b194e881c185d5cd95960821b815260200192915050565b6000612016600f83612664565b6e52656c61793a206f766572666c6f7760881b815260200192915050565b6000612041602683612664565b7f52656c61793a204e6f74207265676973746572656420756e6465722074686973815265040d2dcc8caf60d31b602082015260400192915050565b6000612089602283612664565b7f45434453413a20696e76616c6964207369676e6174757265202776272076616c815261756560f01b602082015260400192915050565b60006120cd601983612664565b7f52656c61793a20426164206e6574776f726b2070726566697800000000000000815260200192915050565b6000612106602183612664565b7f536166654d6174683a206d756c7469706c69636174696f6e206f766572666c6f8152607760f81b602082015260400192915050565b6000612149602083612664565b7f4f776e61626c653a2063616c6c6572206973206e6f7420746865206f776e6572815260200192915050565b6000612182601983612664565b7f52656c61793a20496e64657820686173206265656e2073657400000000000000815260200192915050565b60006121bb601883612664565b7f7363616c65206465636f6465206e6f7420737570706f72740000000000000000815260200192915050565b60006121f4601883612664565b7f52656c61793a206163636f756e747320697320656d7074790000000000000000815260200192915050565b600061222d602b83612664565b7f52656c61793a20526f6f7420697320646966666572656e742066726f6d20746881526a19481c9bdbdd081c1bdbdb60aa1b602082015260400192915050565b600061227a602a83612664565b7f52656c61793a20546865206d65737361676520646f6573206e6f74206d6174638152690d040e8d0ca40d0c2e6d60b31b602082015260400192915050565b60006122c6601383612664565b72496e7075743a204f7574206f662072616e676560681b815260200192915050565b611c71816126a9565b611c7181612689565b611c7181612692565b60208101610e0d8284611c77565b60208101610e0d8284611c68565b6060810161232d8286611c68565b61233a6020830185611d9e565b6117ce60408301846122e8565b604081016123558285611c68565b61077460208301846122e8565b60208101610e0d8284611d95565b60208101610e0d8284611d9e565b6060810161238c8286611d9e565b818103602083015261239e8185611da7565b905081810360408301526114cf8184611d27565b60c081016123c08289611d9e565b6123cd60208301886122e8565b6123da60408301876122e8565b81810360608301526123ec8186611da7565b905081810360808301526124008185611cd9565b905081810360a08301526124148184611cd9565b98975050505050505050565b6080810161242e8287611d9e565b61243b60208301866122fa565b6124486040830185611d9e565b6114cf6060830184611d9e565b60208082528101610e0a8184611da7565b6020808252810161058e81611ddf565b6020808252810161058e81611e18565b6020808252810161058e81611e48565b6020808252810161058e81611e81565b6020808252810161058e81611ec9565b6020808252810161058e81611f02565b6020808252810161058e81611f4a565b6020808252810161058e81611f8e565b6020808252810161058e81611fdd565b6020808252810161058e81612009565b6020808252810161058e81612034565b6020808252810161058e8161207c565b6020808252810161058e816120c0565b6020808252810161058e816120f9565b6020808252810161058e8161213c565b6020808252810161058e81612175565b6020808252810161058e816121ae565b6020808252810161058e816121e7565b6020808252810161058e81612220565b6020808252810161058e8161226d565b6020808252810161058e816122b9565b60208101610e0d82846122f1565b606081016125d282866122f1565b81810360208301526125e48185611c80565b90506117ce6040830184611d9e565b6040518181016001600160401b038111828210171561261157600080fd5b604052919050565b60006001600160401b0382111561262f57600080fd5b5060209081020190565b60006001600160401b0382111561264f57600080fd5b506020601f91909101601f19160190565b5190565b90815260200190565b600061058e8261267d565b151590565b6001600160a01b031690565b63ffffffff1690565b60ff1690565b600061058e82600061058e8261266d565b600061058e82612689565b82818337506000910152565b60005b838110156126db5781810151838201526020016126c3565b838111156126ea576000848401525b50505050565b601f01601f191690565b6127038161266d565b811461270e57600080fd5b50565b61270381612678565b612703816105c2565b6127038161268956fea365627a7a7231582056934981f6780da50ad2c987af386a867418a0bde2345f9c232302f1b731ba526c6578706572696d656e74616cf564736f6c63430005100040",
  "linkReferences": {
    "contracts/MMR.sol": {
      "MMR": [
        {
          "length": 20,
          "start": 3428
        }
      ]
    },
    "contracts/SimpleMerkleProof.sol": {
      "SimpleMerkleProof": [
        {
          "length": 20,
          "start": 4125
        }
      ]
    },
    "contracts/common/Scale.sol": {
      "Scale": [
        {
          "length": 20,
          "start": 4384
        }
      ]
    }
  },
  "deployedLinkReferences": {
    "contracts/MMR.sol": {
      "MMR": [
        {
          "length": 20,
          "start": 1064
        }
      ]
    },
    "contracts/SimpleMerkleProof.sol": {
      "SimpleMerkleProof": [
        {
          "length": 20,
          "start": 1761
        }
      ]
    },
    "contracts/common/Scale.sol": {
      "Scale": [
        {
          "length": 20,
          "start": 2020
        }
      ]
    }
  }
}